:020000040800F2
:10000000200A002051020008CD3300084F300008BC
:10001000C1330008CB140008B53A00080000000006
:10002000000000000000000000000000AB340008E9
:10003000AD19000800000000A9340008AD34000824
:100040006B0200086B0200086B0200086B020008DC
:100050006B0200086B0200086B0200086B020008CC
:100060006B0200086B0200086B0200086B020008BC
:100070006B0200086B0200086B0200086B020008AC
:100080006B0200086B0200086B0200080000000011
:100090000000000000000000000000006B020008EB
:1000A000513500086B0200086B0200086B02000863
:1000B0006B0200086B0200086B0200086B0200086C
:1000C0006B0200086B0200086B0200086B0200085C
:1000D0006B0200086B020008A93A0008000000004B
:1000E0006B0200086B0200086B02000800000000B1
:1000F0000000000000000000000000006B0200088B
:10010000000000006B0200086B0200086B02000890
:1001100000000000000000000000000000000000DF
:100120006B0200086B0200086B0200086B020008FB
:100130006B0200080000000000000000000000004A
:100140000000000000000000000000006B0200083A
:100150006B0200086B0200086B0200086B020008CB
:100160006B0200086B0200080000000000000000A5
:10017000000000000000000000000000000000007F
:10018000000000006B0200080000000000000000FA
:100190006B0200086B02000800F002F800F049F85A
:1001A0000AA090E8000C82448344AAF10107DA45D2
:1001B00001D100F03EF8AFF2090EBAE80F0013F0DB
:1001C000010F18BFFB1A43F0010318471C4C000035
:1001D0003C4C0000103A24BF78C878C1FAD85207C6
:1001E00024BF30C830C144BF04680C6070470000B1
:1001F0000023002400250026103A28BF78C1FBD830
:10020000520728BF30C148BF0B607047662904F011
:100210009285002070471FB504F083FD00F0F6FBC7
:1002200004000020002103F0DFFFE0601FBD10B5D7
:1002300010BD00F00DFD1146FFF7EDFF03F0C0FD0E
:1002400000F02BFD03B4FFF7F2FF03BC00F06EFDDE
:100250000948804709480047FEE7FEE7FEE7FEE75A
:10026000FEE7FEE7FEE7FEE7FEE7FEE70448054996
:10027000054A064B70470000413500089901000807
:1002800020040020200A0020200600202006002054
:1002900053EA020C00F069802DE9F04B4FF00006A4
:1002A000002B1FBFB3FA83F503FA05F424FA05F611
:1002B0005E4012BF1643B2FA82F502FA05F4C5F1A8
:1002C00020051EBF22FA05FC44EA0C04203556EA3C
:1002D000044C4FEA144418BF641C4FF000084FF060
:1002E0000009904271EB030C39D3002919BFB1FA10
:1002F00081F701FA07F6B0FA80F700FA07F6C7F1BE
:1003000020071EBF20FA07FC46EA0C062037B6FB82
:10031000F4FCA7EB0507103F07F01F0BCBF12006FD
:100320000CFA0BFB2CFA06F644BFB3460026202F2E
:10033000A4BF5E464FF0000B5BEA060C08BF4FF00F
:10034000010B19EB0B09ABFB027C48EB0608C01B49
:1003500006FB02CC0BFB03CC71EB0C01C1E70B4697
:10036000024641464846BDE8F08B13B54FF0000009
:100370004FF00001AFF30080BDE81C407047000063
:100380000FB41CB5074B06AA7B446946009005983C
:1003900000F001FB0020694600F010FB1CBC5DF87A
:1003A00014FB0000310600002DE9F0474FF0000A71
:1003B00089460446C0F820A02046E1688847002806
:1003C00076D0252806D0D4E901219047206A401C28
:1003D0002062F1E7E168204600258847C4F81CA0A8
:1003E00006460027C4F818A02A2E09D0304603F08C
:1003F000C7FB38B304EB8708303EC8F8186019E033
:1004000059F8041B204604EB87029161E168884794
:10041000012F064618D1E069002820DA25F02005D2
:100420001DE0D8F8180000EB800006EB40003038E3
:10043000C8F818002046E1688847064603F0A0FB8C
:100440000028EED1012F0AD02E2E08D12046E168D7
:1004500088477F1C0646022F45F02005C4DBA069B3
:10046000002803DA404245F00105A061E80701D009
:1004700025F01005B6B1A6F14100192802D82036A2
:1004800045F400654A463146204625604D46FFF753
:10049000BDFE58B1012806D0ED1D25F0070000F182
:1004A000080989E704E005F1040985E730468AE791
:1004B000206ABDE8F0870000014A00F085BA00001C
:1004C0009800002010B5431C02E010F8011B71B128
:1004D0008107FAD14FF0013202C88C1A8C4314EA1A
:1004E000C211F9D0C01A0A0603D0C01E10BDC01A2E
:1004F00010BD0A0401D0801E10BD0902FCD0401EB0
:1005000010BD4FF0000200B51346944696462039C0
:1005100022BFA0E80C50A0E80C50B1F12001BFF4BC
:10052000F7AF090728BFA0E80C5048BF0CC05DF822
:1005300004EB890028BF40F8042B08BF704748BF70
:1005400020F8022B11F0804F18BF00F8012B7047E4
:1005500070477047704710B500F05CFA006810BD36
:1005600010B5044600F056FA046010BD70472DE93E
:10057000FF4F0C461E464FF0FF378BB0D2E900010B
:10058000DDF860800A908A46C1F30A5505B93D46F8
:10059000002108464FF00000BAF1000F00F44000BF
:1005A00005DA00EB80004FF4400101EA50004FEA09
:1005B0009059B9F1010F00DDB9460A9850EA4A0096
:1005C0000ED044F61050A5F2FF3545432F14B8F174
:1005D000000F1ED07542291E1EDDC9F100021CE06D
:1005E000B8F1010F4FF0000001D0302103E0F243D9
:1005F00005E02154401CB042FBDB304600220021C4
:1006000021540B99C1F80880C1E900200FB0BDE862
:10061000F08FBD1B6D1CDEE74A4600DA694206A872
:1006200000F082FA06AB93E8070003AB83E807000B
:1006300050460A9900F081FB8DE80700A0F50050B4
:100640001F3800900398002D0ADD42F21F014A4630
:100650000844002303A90390684600F0EAFD09E07E
:10066000A0F500504A461F38002303A903906846AE
:1006700000F0F4FD8DE807000004000C03D04FF0FB
:10068000FF30410800E01046B8F1000F03D000220F
:10069000009215461EE0751E05D400F0BFF93032F9
:1006A00062556D1EF9D5B3460122084302D00022DF
:1006B0007F1C04E02078302801D100227F1E002A10
:1006C000099784D01DE0112D07DA00F0A7F9303228
:1006D00062556D1C50EA0102F5D1084302D0009822
:1006E000C8B10EE00021681E05E0235C625C635423
:1006F0002254401E491C8142F7DBAB46A81B401E1A
:100700000990002004F80B000B98099AC0F80880A3
:10071000C0E9002B7AE711264FF0000857E72DE9D2
:10072000F04F88460446D21D22F0070191B0D1E96E
:100730000001CDE90A0103F0BEF902460B98C00F93
:1007400001D02D2007E02068810701D52B2002E091
:10075000202101EAC000032A099001D0072A05DB05
:1007600003464146204600F09FF90BE120788006C1
:1007700001D5E06900E00620B8F1650F814606D09A
:10078000B8F1660F18D0B8F1670F70D131E00020D2
:10079000B9F1110F009001DB112301E009F1010310
:1007A0000AAA01A90CA8FFF7E2FEDDE90C700026F9
:1007B00009F10105834647E001204B4600904FF0C8
:1007C00000470AAA01A90CA8FFF7D1FEDDE90DB088
:1007D0000C995D46002610B909F101000D18B9EB1E
:1007E000050003D4C0F1FF3609F10105A5EB0900AE
:1007F0002BE0B9F1010F01DA4FF001090020B9F146
:10080000110F0090484601DD112300E003460AAABB
:1008100001A90CA8FFF7ABFEDDE90C704D460026E0
:100820008346207800070AD4AB4500DA5D4601A86C
:10083000012D04DD411911F8011C302907D04F4565
:1008400002DA17F1040F04DA012082460FE06D1E70
:10085000EEE7002F02DCED1B3E4403E0781CA842CB
:1008600000DD7D1CB81B00F1010A4FF00047207825
:10087000000703D4AA4501DB4FF0FF3A0021B7F18E
:10088000004F0DF143088DF8431024D002202B2394
:10089000002F01DA7F422D230A21021EA0F1010060
:1008A00000DC5FB197FBF1FC97FBF1F201FB1C7CD4
:1008B00017460CF1300C08F801CDEEE7A8F1010065
:1008C00003702188090501D5452100E06521A0F1CB
:1008D000010800F8011C09980FA9A1EB0807FF1DEA
:1008E00000B10120411901EBEA70A1693844081AEE
:1008F000401EA0612078C00602D42046AFF30080DD
:10090000099828B1D4E901219047206A401C20624F
:100910002078C00622D52046AFF300801EE0002ECE
:1009200004DBB34502DD01A8805D00E03020D4E99E
:1009300001219047206A401C2062761CAAF1010028
:100940005FEA000A0AD100F061F8C0680168405C03
:10095000D4E901219047206A401C2062281EA5F19D
:100960000105DCDC07E0D4E9012118F8010B904710
:10097000206A401C2062381EA7F10107F3DC2046E4
:10098000AFF30080032011B041E6000001694A1C6A
:1009900002610878704700B58FB0CDE901310021C0
:1009A000059105497944CDE9031011466846FFF7E2
:1009B000FBFC0FB000BD0000E5FFFFFF0A6802F876
:1009C000010B0A60704700002DE9F04115460E4604
:1009D000040002D12C6804B90BA4204600F026F9CB
:1009E0000444207870B127463146384600F00EF9AD
:1009F0000444207810B1002004F8010B38462C6024
:100A0000BDE8F0810027F9E70000000000487047CA
:100A1000E003002000487047C003002030B5B0F16B
:100A20000A024FEA900E71F100034EEA817EB0EBAC
:100A30000E0061EB91014FEA101E4EEA017E10EBB1
:100A40000E0041EB11114FEA102E4EEA016E10EB31
:100A50000E0041EB11214FEA104E4EEA014E10EB11
:100A60000E0041EB1141401841F100014FEAD00066
:100A700040EA41704FEAD10110EB80054FEA810452
:100A800044EA907444EB01046D1944EB0404521BD6
:100A9000A3414FF0000348BF0A3200D530BD401CCF
:100AA00041F1000130BD00002DE9F0411F46044630
:100AB00003260168072A01F4006004DB08B116A5CB
:100AC00005E016A503E008B115A500E015A521F085
:100AD00010002060A069C01EA0610FB1401EA0617F
:100AE0002046AFF300804FB1D4E90121384690474A
:100AF000206A401C2062C01C206206E0206AFAE7DF
:100B0000D4E9012115F8010B9047761EF8D2204652
:100B1000AFF30080BDE8F0814E414E006E616E0083
:100B2000494E4600696E66002DE9F047814616463B
:100B30008AB0354878440DC88DE80D0032487844B5
:100B4000801C03AC0DC884E80D0041F69B300844BE
:100B5000372190FBF1F290FBF1F5A5F1800501FB47
:100B600012041B3C02D56442012000E00020DFF8A3
:100B700098A080460027FA44AAF1BE0A0EE0E007DA
:100B80000AD03246684607EB470101230AEB810190
:100B900000F064FB8DE8070064107F1C002CEED190
:100BA000194F7F44AE3F19E0E80715D007EB04105A
:100BB0000DF1180A90E80E008AE80E00C068F042B5
:100BC00001D1981908903246012306A903A800F024
:100BD00045FB03AB83E807006D10641C002DE3D1D7
:100BE0004FF0010332466946B8F1000F03A802D066
:100BF00000F01FFB01E000F031FBC9E90001C9F87A
:100C000008200AB0BDE8F0879842000030B50346DE
:100C10001D781DB10A4603E0AC4201D1181A30BD5F
:100C200012F8014B002CF7D15B1CF1E730B50346FD
:100C30001D783DB10A4612F8014B1CB1AC42FAD105
:100C40005B1CF5E7181A30BD00487047C003002050
:100C50007546FFF7F9FFAE4605006946534620F09A
:100C60000700854618B020B5FFF700FBBDE820401F
:100C70004FF000064FF000074FF000084FF0000B58
:100C800021F00701AC46ACE8C009ACE8C009ACE80B
:100C9000C009ACE8C0098D46704710B50446AFF3F3
:100CA00000802046BDE81040FFF7CCBA4FF0013C71
:100CB00050F8042B51F8043B9A4221D1A2EB0C03CB
:100CC000934313EACC1317D150F8042B51F8043B8B
:100CD0009A4215D1A2EB0C03934313EACC130BD128
:100CE00050F8042B51F8043B9A4209D1A2EB0C03B3
:100CF000934313EACC13DBD04FF00000704700BFE2
:100D0000D01A01BAB1FA81F101F0180122FA01F00A
:100D1000CB40C1F12001DBB2C0B2C01A2CFA01F302
:100D2000D11A914311EAC311E6D170470149182045
:100D3000ABBEFEE72600020070475FEA400C08BF2A
:100D400091F0000F4FEA8C234FEAC12243EA515140
:100D50004FEA1C5018BF00F5F0404FEA300018BFB2
:100D600041F000415FEA6C5C00F02980BCF1FF3F7C
:100D700008BF40F080407047130C06BF12044FF0CC
:100D8000100C4FF0000C130E04BF12020CF1080CF3
:100D9000130F04BF12010CF1040C930F04BF920057
:100DA0000CF1020CD30F04BF52000CF1010C1146E0
:100DB0004FF00002A0F11F00A0EB0C00704711F0F3
:100DC000004F08BF704731F000413FF4D5AF0B0C26
:100DD00006BF09044FF0100C4FF0000C0B0E04BFBF
:100DE00009020CF1080C0B0F04BF09010CF1040CF3
:100DF0008B0F04BF89000CF1020CCB0F04BF49001C
:100E00000CF1010CCCF12003A0EB0C0022FA03F34F
:100E100002FA0CF241EA030100F10100704720F0F0
:100E20007F4C80EA030023F07F47ACEB070303F518
:100E30007C5300F0004003F1FF032DE980494FEAA5
:100E4000154B09B44FEA144325EA0B4E24EA034834
:100E50000FF2042606EB132749083E785FEA3202B8
:100E600003FB0667C7F5000707FB06F64FEA543792
:100E70004FEAD64606F1020607FB066CCCF1005C91
:100E80004FEA1C472CEA074C07FB06F40CFB06F55F
:100E900004EB15464FEA961634BF00204FF0004091
:100EA0004FEAD13706FB07FC4FEA1C4C0CFB0BF753
:100EB000D21B03FB0CF761EB07010CFB0EF7B0EB49
:100EC000074072EB17420CFB08F734BFA2EB074256
:100ED000B2EB074261EB17414FEA0C444FEA91072E
:100EE00006FB07FC4FEA1C4C0CFB0BF7B0EBC740B2
:100EF00072EB573203FB0CF734BFA2EBC742B2EBE5
:100F0000C74261EB57310CFB0EF7B0EBC70072EB39
:100F100057720CFB08F734BFA2EBC702B2EBC70253
:100F200061EB5771039F4FEA816141EA921104EB33
:100F3000CC044FEAD1374FEA826206FB07FC42EA53
:100F400090124FEA80604FEA1C4C0CFB0BF7D21B4F
:100F500003FB0CF761EB07010CFB0EF7B0EB07404E
:100F600072EB17420CFB08F734BFA2EB0742B2EB5F
:100F7000074261EB17414FEA8C554FEA910704EBAA
:100F80009C2406FB07FC4FEA1C4C0CFB0BF7B0EB58
:100F9000C74072EB573203FB0CF734BFA2EBC742DA
:100FA000B2EBC74261EB57310CFB0EF7B0EBC70059
:100FB00072EB57720CFB08F734BFA2EBC702B2EB1F
:100FC000C70261EB577115EB4C254FEA816141EA8D
:100FD00092114FEA82624FEAD13742EA901206FB41
:100FE00007FC44F100044FEA80604FEA1C4C0CFB04
:100FF0000BF7D21B03FB0CF761EB07010CFB0EF7A1
:10100000B0EB074072EB17420CFB08F734BFA2EBC2
:101010000742B2EB074261EB174115EB1C154FEA93
:10102000813141EA92414FEA823242EA90424FEAEC
:1010300080304FEA0C7644F1000448EA03434EEA5C
:101040000B484FF0000EB2EB080C71EB030724BF06
:10105000624639464EEB0E0E4FF0000B001852411F
:1010600049414BEB0B0BB2EB080C71EB03077BF127
:10107000000B24BF624639464EEB0E0E4FF0000BBC
:101080000018524149414BEB0B0BB2EB080C71EBD2
:1010900003077BF1000B24BF624639464EEB0E0E70
:1010A00051EA020718BF46F0010616EB0E7655F11D
:1010B000000254F1000103D5BDE88901BDE80088B4
:1010C000BDE88901BDE80048B619524141EB010174
:1010D000A3F10103704780807F7E7D7C7B7A7978E5
:1010E000777676757473727171706F6E6E6D6C6CED
:1010F0006B6A6A696868676666656464636362618F
:101100006160605F5F5E5E5D5D5C5C5B5B5A5A590F
:10111000595858575756565555555454535352527B
:101120005251515050504F4F4F4E4E4D4D4D4C4CD3
:101130004C4B4B4B4A4A4A4949494848484747471C
:101140004746464645454544444444434343434259
:10115000424242414141002B9C4630D477002BD083
:101160001CB54FEA370703B44FF010004FF01001E1
:10117000BAF1000F06D0BCF1000FDCBF40F0080050
:1011800040F008014FF000000FBCBDE810400BF12B
:10119000010BBBF1010F08BF5FEA170722BF12F175
:1011A000010211F101014FF0004143F1000300F091
:1011B000004043EA00007047F9D35708D0E746EAF9
:1011C000064613F1400F4FEA16461FDD13F1200FBC
:1011D000DFBF16430A46002120335B42BED0C3F175
:1011E000200746EA064602FA07F74FEA164646EA9D
:1011F0000706C3F1200722FA03F201FA07F721FAE2
:1012000003F14FF0000342EA0702A7E746EA0206AD
:1012100046EA06464FEA164646EA0106BCBF46EADB
:101220000646360C4FF000034FF000024FF000016D
:1012300094E72DE9804C9A46934670B491E83800C3
:1012400007C831EA400C48BF34EA430C03D5FFF726
:10125000E6FDFFF780FFF0BCBDE8008C2DE9804C77
:101260009A46934670B491E8380007C810F0804F52
:1012700008BF13F0804F03D100F005F8FFF76BFFB4
:10128000F0BCBDE8008C20F07F4780EA030023F02B
:101290007F4C07EB0C03A3F57C5300F00040A3F157
:1012A000FE0392F0000F00F0B38095F0000F00F005
:1012B00077802DE901494FEA11404FEA144621EAAF
:1012C000004800FB06FC24EA064708FB06F607FB7D
:1012D00008F800FB07F718EB06484CEB164C4FEAF2
:1012E000124B18EB07484FEA15464CEB174022EA21
:1012F0000B4E0BFB06FC25EA06470EFB06F607FB2A
:101300000EFE0BFB07F71EEB064E4CEB164C4FF098
:1013100000061EEB074E4CEB174B18EB0B0840F189
:10132000000018EB0E0B58EB000840F100008F1A7C
:101330004FF000013CBFC943661B14BFB5EB040C62
:1013400000213CBFC943F61B4FEA17444EEA8E0EFC
:1013500027EA04454FEA1C4704FB07622CEA074CC6
:1013600005FB07F70CFB05F604FB0CFC16EB074628
:1013700042EB174216EB0C4642EB1C421BEB0606F7
:1013800058EB0202414146EA9E0601D5BDE80189BB
:10139000B619524141EB0101A3F10103BDE80189F6
:1013A0004FEA14454FEA114724EA054621EA074C63
:1013B00005FB07F406FB07F70CFB06F105FB0CFC2D
:1013C00011EB074144EB17444FEA124711EB0C4174
:1013D00044EB1C4422EA074C05FB07F206FB07F727
:1013E0000CFB06F605FB0CFC16EB074642EB17421E
:1013F00016EB0C4642EB1C456A1854F1000148BF3D
:101400007047B619524141EB0101A3F10103704746
:1014100095F0000F37D04FEA11424FEA144721EA06
:10142000024624EA074C02FB07F106FB07F70CFB18
:1014300006F402FB0CFC14EB074441EB17414FEAA6
:10144000154714EB0C4441EB1C4125EA074C02FB09
:1014500007F506FB07F70CFB06F602FB0CFC16EB88
:10146000074645EB174516EB0C4645EB1C42121997
:1014700051F1000148BF7047B619524141EB0101DB
:10148000A3F1010370474FEA14454FEA114724EADC
:10149000054621EA074C05FB07F106FB07F70CFBA5
:1014A00006F24FF0000605FB0CFC12EB074241EB85
:1014B000174112EB0C4251EB1C4148BF7047921888
:1014C00041EB0101A3F101037047FEE72DE9F04173
:1014D000FF482DED0A8B0168486AFE4C00B2C21726
:1014E00000EB5270C010E080F94A48321068406A40
:1014F00000B2C31700EB5370C010208102F1480303
:101500001868406A00B2C51700EB5570C0106081C2
:10151000002048621168486219684862EE4D2878D8
:101520009FEDEE3ADFEDEE2ADFEDEE3A9FEDEE9A1B
:1015300000287CD0B4F9060000EE100A04F10C007B
:10154000B8EEC00A20EE030AF0EEC00A80EEA20A4E
:10155000F0EE630A02F0CCFB84ED060AE34E30782D
:10156000002865D0B4F9080000EE100AD948B8EE9A
:10157000C00A103020EE030AF0EEC00A80EEA20A84
:10158000F0EE630A02F0B4FB84ED070AD84F387816
:1015900000287DD0B4F90A0000EE100ACD48B8EE5C
:1015A000C00A143020EE030AF0EEC00A80EEA20A50
:1015B000F0EE630A02F09CFB84ED080A94ED060A43
:1015C000F0EE000A20EE200A9FEDCA1A20EE010A72
:1015D000DFEDC91A20EE212A9FEDC80A82EE008AAB
:1015E00084ED098A94ED072A22EE202A22EE012AB0
:1015F00022EE212A82EE00AA84ED0AAA94ED082A9E
:1016000062EE200A60EE810A60EEA10AC0EE809AC6
:10161000C4ED0B9A95F9000000EE100AB8EEC00A6E
:10162000B0EEC00A10EE100A03F0DAFA01E063E04F
:1016300065E09FEDB3BB53EC1B2B02F0C5FE9FEDA5
:10164000B2CB53EC1C2B03F017F802F0E3FD08EECD
:10165000900AC4ED178A96F9000000EE100AB8EE61
:10166000C00AB0EEC00A10EE100A03F0B9FA53EC4B
:101670001B2B02F0A9FE53EC1C2B02F0FDFF02F025
:10168000C9FD0AEE900AC4ED18AA97F9000000E01F
:1016900038E000EE100AB8EEC00AB0EEC00A10EE54
:1016A000100A03F09DFA53EC1B2B02F08DFE53EC55
:1016B0001C2B02F0E1FF02F0ADFD78EE0A0A00EE0D
:1016C000100A84ED190A30EEA91A78EEAA0A84ED00
:1016D0001A1A70EE800AF5EEC00AF1EE10FA01D087
:1016E00081EE209AB5EEC08AF1EE10FA0DD029EE07
:1016F000281AC1EE080A0AE084ED069A2EE784ED66
:10170000079A43E784ED089A58E7F7EE000AB5EE2A
:10171000C0AAC4ED1B0AF1EE10FA04D029EE2A1A71
:10172000C1EE0A0A01E0F7EE000AF5EEC09AC4ED38
:101730001C0AF1EE10FA04D069EE000A80EEA90A44
:1017400001E0B7EE000A84ED1D0A6078B7EE000AEA
:1017500008B184ED1B0AA07808B184ED1C0AE0787A
:1017600008B184ED1D0AF0EE480AB0EE680A684838
:1017700001F02EFE9FED678AD4ED1B0A644820EE2F
:10178000080A2C3020EE200A84ED0F0AD4ED0A0A54
:1017900094ED180A01F01CFE20EE080AD4ED1C0A94
:1017A0005B4820EE200A583084ED100AD4ED0B0A75
:1017B00094ED190A01F00CFE20EE080AD4ED1D0A82
:1017C000554820EE200A84ED110AE16B814201DDCB
:1017D00084ED0F8A216C814201DD84ED108A10EEC8
:1017E000101A814201DD84ED118A287810B9484829
:1017F00001F048FE307818B945482C3001F042FE1F
:10180000387818B94248583001F03CFE314994ED1F
:10181000151A491CD4ED160AA06C94ED0F0A02F0BB
:1018200011FC84ED0F0A2B4994ED151A891CD4ED97
:10183000160AE06C94ED100A02F004FC84ED100A24
:10184000244994ED151AC91CD4ED160A206D94EDA7
:10185000110A02F0F7FB84ED110A95F90000002847
:1018600005DAD4ED0F0AF1EE600AC4ED0F0A96F91D
:101870000000002805DAD4ED100AF1EE600AC4ED8C
:10188000100A97F90000002803DAB1EE400A84ED4F
:10189000110AE06A03F0A4F99FED20AB41EC180BAC
:1018A000B0EE4A0AF0EE6A0A02F02DF953EC1A2B58
:1018B00051EC100B02F088FD53EC182B02F0DCFE0B
:1018C00041EC190BA06A03F08BF941EC180B29E0ED
:1018D0009C00002000000020920000200000164420
:1018E0000000484300008C420000000090000020EF
:1018F00091000020DB0F49406891ED3C00007042F0
:1019000000000000000059400000006039B4E43FCE
:10191000F40200200000C8420000C842000000009D
:1019200000000840B0EE4A0AF0EE6A0A02F0EBF856
:101930009FED191B51EC100B53EC112B02F044FDE1
:1019400053EC182B02F098FE53EC192B02F094FC88
:1019500002F060FC206394ED090ADFED110AD4ED7A
:101960000A1A9FED101A20EE202AD4ED0B0A30EE51
:10197000210A01EEC12A30EE200A00EEC12ADFED75
:101980000A0A80EE201A84ED0D2A84ED0E1ABDECB1
:101990000A8BBDE8F081000000000000000008C0D4
:1019A000ABAA2A3FABAAAA3EEB51B83E70472DE93D
:1019B000F0410446876D00F04BF9064694F8350077
:1019C0000025022806D08020606584F8345001206C
:1019D000BDE8F0812068016821F0160101602068EF
:1019E000416921F080014161206C08B9A06C20B1EF
:1019F0002068016821F0080101602068016821F079
:101A0000010101600CE000F023F9801B052807D9D3
:101A100020206065032084F8350084F83450D7E72F
:101A200020680068C007EED194F85C103F20884021
:101A3000B860012084F8350084F834500020C7E7EE
:101A400090F83510022903D08021416501207047AC
:101A5000052180F835100068016821F0010101605E
:101A6000002070472DE9F84FDFF8B8A100220124CB
:101A700003254FF00F090AF1040BAAF1040E00BF71
:101A80000B6804FA02F63340B34273D10F7907F0C2
:101A90000307012F01D0022F16D187684FEA4208B1
:101AA00005FA08FC27EA0C07D1F80CC00CFA08FC70
:101AB0004CEA070CC0F808C04768B7430E79C6F374
:101AC000001696403E4346600E79F643B6070DD0A9
:101AD000C768560005FA06FC27EA0C07D1F808C0CB
:101AE0000CFA06FC4CEA070CC0F80CC00E7906F0A4
:101AF0000306022E10D1D60800EB8608D8F8206025
:101B000057074FEAD76C09FA0CF7BE430F6907FA7B
:101B10000CF73743C8F8207006684FEA420C05FA04
:101B20000CF7BE430F7907F0030707FA0CF73743AA
:101B300007604E6816F4403F6DD03B4E376847F45F
:101B400080473760366822F0030706F48046009627
:101B5000364E07EB060CDCF8086897073F0F09FACA
:101B600007F826EA0806DFF8C880404503D14FF0A1
:101B700000081EE04FE0DFF8BC80404502D14FF086
:101B8000010816E0DFF8B080404502D14FF00208AE
:101B90000FE0DFF8A880404502D14FF0030808E0CD
:101BA000DFF89C80404502D14FF0040801E04FF07F
:101BB000070808FA07F848EA0608CCF80888DAF8AF
:101BC00000605746D1F804C09E435FEACC2C00D594
:101BD0001E433E60DBF800605F46D1F804C09E43C0
:101BE0005FEA8C2C00D51E433E60DEF8006077462D
:101BF000D1F804C09E435FEA8C3C00D51E433E6092
:101C0000084F083F3E68D1F804C09E435FEACC3CD1
:101C100000D51E433E60521C102AFFF431AFBDE8D0
:101C2000F88F0000083C0140443802400030014079
:101C3000000002400004024000080240000C024084
:101C4000001002400AB1816170470904FBE70000FF
:101C500001488068704700007800002002488168D1
:101C60000278114481607047780000200B4810B55D
:101C7000016841F400710160016841F48061016014
:101C8000016841F480710160032000F06FF80F20BB
:101C900000F006F800F024F8002010BD003C0240DF
:101CA00070B50D4D04464FF47A712878B1FBF0F011
:101CB0000A490968B1FBF0F000F00CFB48B9102CA0
:101CC00007D200222146501E00F030F800206C6040
:101CD00070BD012070BD000078000020840000204D
:101CE0000A4808B5016841F480410160006800F4C9
:101CF000804000900548001F016841F0805101605C
:101D0000006800F08050009008BD00004438024098
:101D1000002809DB00F01F020121914040098000EA
:101D200000F1E020C0F8001170470000F0B40E4B45
:101D30001B680C46C3F30223C3F10705042D00D929
:101D40000425191D072901D2002300E0DB1E01260E
:101D500006FA05F1491E214099409E40761E164024
:101D60003143F0BC01F0BFBE0CED00E0064900F0CD
:101D7000070208684FF6FF03184040EA0220034AB2
:101D800010430860704700000CED00E00000FA0509
:101D90002DE9F0470E46050065D0DFF81481D8F82C
:101DA0000000F7B200F00700B04207D288F80070D8
:101DB000D8F8000000F00700B04254D128683D4C2C
:101DC000810712D5400703D5206840F4E050206019
:101DD0002878000703D5206840F460402060206820
:101DE000A96820F0F000084320602878C0072DD0B3
:101DF000304968680839012812D0022813D0032816
:101E000011D00968890700292DDA216821F0030122
:101E100001432160FFF71CFF814641F2883A0EE042
:101E200009688903EFE709688901ECE7FFF710FF0C
:101E3000A0EB0901514502D90320BDE8F0872068D5
:101E4000696800F00C00B0EB810FEFD1D8F80010FA
:101E5000404601F00701B14207D90770006800F061
:101E60000700B04201D00120E7E72878400705D5F8
:101E70002068E96820F4E0500843206028780007D3
:101E800006D52068296920F4604040EAC10020603E
:101E900000F038F82168084AC1F30311515CC840CA
:101EA0000649086006480068FFF7FAFE0020C4E70C
:101EB000003C0240083802403A4D000884000020EF
:101EC0007C0000200448054900680968044AC1F301
:101ED0008221515CC84070478400002008380240CD
:101EE0004A4D00080448054900680968044AC1F3DE
:101EF0004231515CC84070478400002008380240DD
:101F00004A4D0008154810B5006810F00C0214483E
:101F100013D01449042A0FD0082A0ED10F4C241FC5
:101F20002268236802F03F025B0207D52068C0F3F5
:101F30008810A0FB010106E0084610BD2168C1F32E
:101F40008811A1FB00010023FEF7A2F92168C1F36B
:101F50000141491C4900B0FBF1F010BD08380240B6
:101F60000024F40040787D012DE9F84F04006ED084
:101F70002078DFF84C93C007A9F104054AD009F195
:101F800004000168C1F38101012908D00068C0F391
:101F9000810002280AD1D9F80000400206D528683D
:101FA000800337D560680028E1D033E06068B0F581
:101FB000803F10D0B0F5A02F286810D020F48030DA
:101FC0002860286820F4802028606068A8B1FFF7A6
:101FD0003FFE06460DE0286840F48030F4E740F408
:101FE00080202860F7E700BFFFF732FE801B6428DF
:101FF00073D828688003F7D50CE0FFF729FE064662
:1020000005E000BFFFF724FE801B6428F0D8286895
:102010008003F7D42078DFF8AC8280074FF0000A05
:102020003ED5A748001D016811F00C0F08D00068CC
:10203000C0F3810002280BD1D9F80000400207D478
:102040002868800716D5E068012800D112E033E146
:10205000E068B8B10120C8F80000FFF7F9FD0646B6
:1020600005E000BFFFF7F4FD801B0228C0D82868F8
:102070008007F7D52868216920F0F80040EAC10000
:1020800028600DE0C8F800A0FFF7E2FD064604E076
:10209000FFF7DEFD801B02281FD828688007F7D4D1
:1020A0002078000722D5864F87486169703771B163
:1020B00001210160FFF7CCFD064604E0FFF7C8FDF3
:1020C000801B022809D838688007F7D50EE0C0F8D1
:1020D00000A0FFF7BDFD064605E082E0FFF7B8FD72
:1020E000801B02287DD838688007F7D42078400705
:1020F00068D5DFF8CCB100270BF13C0BDBF8000012
:10210000C0000BD4DBF8001041F08051CBF8001078
:10211000DBF80000012700F0805000906B4E306823
:10212000C00510D4306840F480703060FFF790FD37
:10213000009005E0FFF78CFD0099401A022850D866
:102140003068C005F6D55E4EA0686C3601280FD009
:102150000528306810D020F001003060306820F091
:1021600004003060A068B8B1FFF772FD00900FE086
:10217000306840F00100F4E740F004003060F7E719
:10218000FFF766FD0099411A41F28830814266D816
:1021900030688007F4D50EE0FFF75AFD009007E0A5
:1021A000FFF756FD0099411A41F28830814256D816
:1021B00030688007F4D42FB1DBF8001021F0805193
:1021C000CBF80010A069C8B33D49091D0968C1F3E7
:1021D000810102294AD00228504607D0C8F8600081
:1021E00000E03CE0FFF734FD04463BE04746C8F81A
:1021F0006000FFF72DFD064605E000BFFFF728FD54
:10220000801B02282BD828688001F7D4D4E9070165
:102210000843A16A2E4A490802EB0141626A41EA79
:102220008211084394F82C1040EA0161C9F80010AB
:1022300001203866FFF70CFD044606E03EE000BFD3
:10224000FFF706FD001B022809D828688001F7D592
:1022500034E000BFFFF7FCFC001B022802D903207A
:10226000BDE8F88F28688001F4D427E00128F7D072
:10227000D9F80000E26900F4800191421CD1226A81
:1022800000F03F01914217D147F6C071626A0140E8
:10229000B1EB821F10D1A26A4FF0FF3300F440313E
:1022A00003EB5202B1EB024F06D194F82C1000F070
:1022B0007060B0EB016F01D00120D1E70020CFE7C3
:1022C0000438024000004742800E47420070004040
:1022D0000000FFFF10B5401EB0F1807F01D3012048
:1022E00010BD4FF0E02460610F21601701F0FBFB8F
:1022F0000020A06107202061002010BD70477047BA
:1023000070B590F83C20012A2CD0012480F83C4084
:10231000022280F83D2003685A689D6822F070060A
:102320000A6832435A60104B02689A420ED0B2F1EA
:10233000804F0BD00D4B9A4208D00D4B9A4205D0DE
:102340000C4B9A4202D00C4B9A4204D1496825F0BA
:1023500080031943916080F83D40002180F83C10D3
:10236000084670BD022070BD00000140000400401E
:1023700000080040000C00400040014010B504007F
:1023800003D094F83D0010B107E0012010BD0020FB
:1023900084F83C00204600F01FF8022084F83D003D
:1023A000211D206801F0E2F8012084F8460084F83D
:1023B0003E0084F83F0084F8400084F8410084F82F
:1023C000420084F8430084F8440084F8450084F80F
:1023D0003D00002010BD000008B50068114988428A
:1023E00009D11148016841F008010160006800F05E
:1023F0000800009008BD0D498842FBD10A48001D25
:10240000016841F4803101600068002200F48030EE
:10241000009011461820FFF789FCBDE808401820FD
:10242000FFF776BC000C00404038024000400140FD
:1024300090F83D10012901D001207047022180F859
:102440003D1000680E4988420ED0B0F1804F0BD08D
:102450000C49884208D00C49884205D00B49884273
:1024600002D00B49884204D1816801F00701062996
:1024700003D0016841F001010160002070470000B5
:10248000000001400004004000080040000C004033
:102490000040014090F83D10012901D00120704713
:1024A000022180F83D100168CA6842F00102CA604A
:1024B00000680E4988420ED0B0F1804F0BD00C4915
:1024C000884208D00B49884205D00B49884202D087
:1024D0000A49884204D1816801F00701062903D026
:1024E000016841F0010101600020704700000140D7
:1024F0000004004000080040000C00400040014083
:1025000070B5044690F83C000025012817D001263C
:1025100084F83C60022084F83D002068826822F044
:10252000770222F47F4282600868502838D00DDCA0
:1025300020284FD005DC90B3102811D14AE00220AA
:1025400070BD302846D040280AD13BE060282FD00B
:1025500070280DD0B0F5805F03D0B0F5005F12D0C9
:10256000012584F83D60002084F83C00284670BDB9
:10257000CB68D1E90121206801F055F82068816815
:1025800041F0770109E0CB68D1E90121206801F031
:102590004AF82068816841F480418160E1E719E0F0
:1025A000CA684968206801F0F3F85021206806E005
:1025B000CA684968206801F0FCF86021206801F0D1
:1025C0003CF8CEE7CA684968206801F0E1F840218C
:1025D0002068F4E7226801461046F0E72DE9F04153
:1025E0000D46040003D094F83D0018B108E0012026
:1025F000BDE8F081002084F83C00204600F040F85F
:10260000022084F83D002068816844F2070291436B
:102610008160211D206800F0A9FF226890689169FF
:10262000166A2B68AF69034340F20330814341EAE5
:102630000721A868EF6908434FF6FC418843E96821
:1026400040EA0720014328692F6A000140EA073069
:10265000084369686D6926F0AA0646EA051529430C
:1026600093602268906154F8460B0162012004F8DF
:102670001F09E0752076E0762077A0750020B7E787
:1026800070B586B0044614216846FDF73AFF3E480F
:10269000236800243D4902250126834226D13B4878
:1026A0001430026842F001020260006800F001008C
:1026B0000590086840F0100008600868694600F05E
:1026C000100005904FF420600090CDE90154CDE951
:1026D00003462F48FFF7C6F9002211461820FFF7DE
:1026E00025FB1820FFF714FB06B070BD274A2948C8
:1026F0001032B3F1804F1CD0274EB342F4D113688F
:1027000043F002031360126802F0020205920A68A5
:1027100042F001020A60096801F001010591C0213F
:102720000091CDE901546946CDE90345FFF79AF9D7
:10273000DAE7136843F001031360126802F0010244
:1027400005920A6842F001020A600A6802F001027A
:1027500005920A6842F002020A60096801F002016B
:1027600005914FF400410091CDE90154CDE90346B4
:102770006946FFF777F908200090CDE90154CDE9CB
:10278000034669460548D1E7000001403038024061
:10279000001002400000024000040040000402401B
:1027A00070B590F83E60044690F83F5090F8423083
:1027B00090F84320022021B104290ED0012E1BD114
:1027C00014E0012E18D1012B16D184F83E0084F8B4
:1027D000420001220021206820E0012D0CD1012AB5
:1027E0000AD184F83F0084F8430014E0012D03D19E
:1027F000012B01D1012A01D0012070BD84F83E00D7
:1028000084F83F0084F8420084F84300012200214C
:10281000206800F0FBFE01220421206800F0F6FE93
:102820002068016841F001010160002070BD70471F
:102830002DE9F04104460068C66805694FF00007BD
:10284000A90713D5B10711D5F91E01610120207721
:10285000206880698007204602D0FFF7E8FF04E087
:1028600000F0BCF8204600F061F92777680716D51C
:10287000700714D521686FF00400086102202077EA
:102880002068806910F4407F204602D0FFF7CFFF18
:1028900004E000F0A3F8204600F048F92777280765
:1028A00015D5300713D521686FF0080008610420A2
:1028B00020772068C0698007204602D0FFF7B7FF65
:1028C00004E000F08BF8204600F030F92777E806A6
:1028D00016D5F00614D521686FF0100008610820A5
:1028E00020772068C06910F4407F204602D0FFF7AF
:1028F0009EFF04E000F072F8204600F017F92777F9
:10290000E80708D0F00706D021686FF001000861E1
:10291000204600F065F9280608D5300606D521685E
:102920006FF0800008612046FFF7E8FC680608D5D4
:10293000700606D521686FF040000861204600F05F
:102940005DF9A8060AD5B00608D521686FF0200009
:1029500008612046BDE8F041FFF7D1BCBDE8F08139
:1029600030B587B0044614216846FDF7CAFD174903
:102970002068884227D116480024016841F00801E8
:102980000160016801F008010591016841F0020150
:1029900001600068022500F0020005904FF420401D
:1029A0000090CDE9015469460A48CDE90345FFF797
:1029B00059F840200090CDE9015469460648CDE918
:1029C0000345FFF74FF807B030BD00000008004096
:1029D00030380240000C024000040240704770B5DD
:1029E000044690F83C0000260D4601280FD0012037
:1029F00084F83C006AB1042A1DD0082A2FD00C2A82
:102A00003FD00126002084F83C00304670BD0220F3
:102A100070BD206800F01AFE2068816941F008014D
:102A200081612068816921F00401816120688169E8
:102A30002A69114311E0206800F030FE20688169A6
:102A400041F4006181612068816921F480618161C4
:102A5000206881692A6941EA02218161D2E7206800
:102A600000F048FE2068C16941F00801C16120689A
:102A7000C16921F00401C1612068C1692A6911435B
:102A800011E0206800F062FE2068C16941F4006135
:102A9000C1612068C16921F48061C1612068C16998
:102AA0002A6941EA0221C161ACE710B5040003D0F4
:102AB00094F83D0010B107E0012010BD002084F81B
:102AC0003C00204600F01EF8022084F83D00211D45
:102AD000206800F04BFD012084F8460084F83E0099
:102AE00084F83F0084F8400084F8410084F84200F4
:102AF00084F8430084F8440084F8450084F83D00DD
:102B0000002010BD08B500680649884208D1064873
:102B1000016841F004010160006800F004000090C9
:102B200008BD000000080040403802407047000027
:102B300010B50446022249B104290ED0082913D049
:102B400094F84100012816D0012010BD94F83E00F1
:102B50000128F9D184F83E200FE094F83F000128C5
:102B6000F2D184F83F2008E094F840000128EBD12E
:102B700084F8402001E084F841200122206800F020
:102B800045FD12492068884203D1426C42F400425C
:102B90004264206888420ED0B0F1804F0BD00C49BF
:102BA000884208D00B49884205D00B49884202D0A0
:102BB0000A49884204D1816801F00701062903D03F
:102BC000016841F001010160002010BD00000140DA
:102BD0000004004000080040000C0040004001409C
:102BE000044900680968884202D10349012008703D
:102BF000704700000402002000000020704770476A
:102C000070470000F8B5016804460868CA684B6957
:102C100010F00F0F4FF0000559D003F0010602F439
:102C20009077374365D0C10705D0D10503D5616CD6
:102C300041F001016164410705D5D90703D0616CFA
:102C400041F002016164810705D5D90703D0616CA9
:102C500041F004016164010707D502F0200131430E
:102C600003D0616C41F008016164616C00293AD0C5
:102C7000800604D5900602D5204600F0DAFD2068D3
:102C80004069616CC0F38010090700D460B320462E
:102C900000F0A8FD20684069400621D52068143066
:102CA00050E8001F21F0400140E80012002AF5D151
:102CB000E06BA8B172490165E06BFEF7C1FE002828
:102CC00011D0E06B016D01B0BDE8F040084783060C
:102CD0000FD593060DD52046BDE8F84000F0A9BDFC
:102CE0002046FFF78DFFF8BD2046FFF789FF65649A
:102CF000F8BD266B2023012E7ED1C6067CD5D606D4
:102D00007AD508684868009048694FF00206400686
:102D10004DD5E26B106840684FF480770004000CDA
:102D20003AD0A18D814237D9E085D069B8422DD003
:102D300020680C3050E8001F21F4807140E8001238
:102D4000002AF5D12068143050E8001F21F001015D
:102D500040E80012002AF5D12068143050E8001F26
:102D600021F0400140E80012002AF5D184F84230F9
:102D7000256320680C3050E8001F21F0100140E866
:102D80000012002AF5D1E06BFEF711FE6663A08DFC
:102D9000E18D401A81B206E0A18D8142A8D1D069AF
:102DA000B842A5D166632046FFF729FFF8BDA08D84
:102DB000E18D401A81B2E08D0028F7D00029F5D0CE
:102DC00020680C3050E8002F22F4907240E8002771
:102DD000002FF5D12068143050E8002F22F00102B6
:102DE00040E80027002FF5D184F8423025632068A1
:102DF0000C3050E8002F00E006E022F0100240E81E
:102E00000023002BF3D1CDE705062BD5150629D5D8
:102E100094F841002128C9D1A068B0F5805F01D1A4
:102E20002069B0B1206A411C2162216800784860A5
:102E3000E08C401E0004000CE084B7D12068C1681B
:102E400021F08001C1602068C16841F04001C1608B
:102E5000F8BD206A0088C0F308004860206A801C22
:102E60002062E5E74006F3D55006F1D5CA68204652
:102E700022F04002CA6084F8413000F0E7F8F8BD63
:102E8000D737000870B5040004D094F8410000253D
:102E900010B106E0012070BD84F84050204600F0DB
:102EA00023F8242084F841002068C16821F40051EF
:102EB000C160204600F01EFD2068016921F49041A8
:102EC00001612068416921F02A0141612068C168DF
:102ED00041F40051C1606564202084F8410084F809
:102EE00042006563002070BD10B586B00446142111
:102EF0006846FDF706FB17492068884228D1164826
:102F00000021026842F400320260006800F40030E0
:102F1000059011481038026842F001020260006812
:102F200000F0010005900C2000900220CDE9010185
:102F3000032003900720049069460848FEF792FD9D
:102F4000002211462620FEF7F1FE2620FEF7E0FEC5
:102F500006B010BD0044004040380240000002406E
:102F600090F84230202B01D00220704721B11AB1D5
:102F70000023036300F044BD0120704710B50949E8
:102F800004460068096888420BD10748407901F07F
:102F900015F9054920460122BDE81040491DFFF7FB
:102FA000DFBF10BD4C020020000000202DE9F843D7
:102FB000044690F84100984616460D46202802D057
:102FC0000220BDE8F88385B17EB100206064212035
:102FD00084F84100FEF73CFEA6848146E684A068A2
:102FE0002027B0F5805F02D003E00120E9E72069E7
:102FF00010B12E4600250EE000260CE08021204670
:1030000000F019FDA8B9C6B116F8010B2168486097
:10301000E08C401EE084E08C4B464FF00002CDF87F
:1030200000800028EAD14FF04001204600F003FD67
:1030300040B184F841700320C3E735F8020BC0F3B8
:103040000800E3E784F841700020BAE77047FEE724
:103050002DE9F04387B014216846FDF752FA334852
:103060000024016841F080010160016801F08001E5
:103070000591016841F001010160016801F0010161
:103080000591016841F010010160016801F0100133
:103090000591016841F008010160016801F0080133
:1030A0000591016841F004010160016801F004012B
:1030B0000591016841F00201016000681C4F00F0B9
:1030C00002004FF440750590002229463846FEF76D
:1030D000B9FDDFF860800022C0214046FEF7B2FD56
:1030E000DFF854906E10002231464846FEF7AAFDE4
:1030F00000950125CDE90154694638460394FEF751
:10310000B1FCC0200090CDE90154694640460394CB
:10311000FEF7A8FC0096CDE90154694648460394A1
:10312000FEF7A0FC07B0BDE8F08300003038024095
:10313000000C0240000802400004024010B58CB0B0
:1031400024216846FDF7DDF9002416480994144946
:103150000A94C0E900144FF6FF71C0E9024104610E
:10316000446184610320CDE900040120CDE902041B
:103170000494CDE90540079469460A480894FFF78E
:103180002DFA08B172B6FEE7099409A905480A9418
:10319000FFF7B6F8002801D072B6FEE70CB010BDFC
:1031A000000001409C00002010B58CB0242168462E
:1031B000FDF7A7F90024154809944FF080410A94BF
:1031C000C0E900144FF6FF71C0E902410461846157
:1031D0000320CDE900040120CDE902040494CDE9E7
:1031E00005400794694609480894FFF7F7F908B1C4
:1031F00072B6FEE7099409A904480A94FFF780F81B
:10320000002801D072B6FEE70CB010BDE40000202B
:1032100010B58CB024216846FDF773F900241648D8
:10322000099414490A94C0E900144FF6FF71C0E9EB
:103230000241046184610320CDE900040120CDE94D
:1032400002040494CDE90540079469460A480894AD
:10325000FFF7C4F908B172B6FEE7099409A9064858
:103260000A94FFF74DF8002801D072B6FEE70CB0C3
:1032700010BD0000000400402C01002010B58AB0F1
:10328000002407941C2168460894FDF73AF91E486B
:103290001C49C0E900144FF6FF71C0E90241046106
:1032A0008461FFF702FC08B172B6FEE7079407A934
:1032B00015480894FFF724F808B172B6FEE76020BD
:1032C000CDE900040294002269460F480494FFF7F8
:1032D00086FB08B172B6FEE7042269460A48FFF78A
:1032E0007EFB08B172B6FEE70C2269460648FFF77E
:1032F00076FB08B172B6FEE70348FFF731FB0AB070
:1033000010BD0000000800407401002010B586B018
:1033100000241648009401940294039404941249E2
:10332000059401600921C0E90114611EC0E903147C
:103330008461FFF723F808B172B6FEE74FF48050BE
:10334000009069460948FFF7DBF808B172B6FEE75E
:10335000049404A905480594FEF7D2FF002801D083
:1033600072B6FEE706B010BD000C0040BC010020A4
:103370001FB5002111480091019102910E4A03915D
:10338000026040F2E732C0E9012142F20F72C0E967
:1033900003218161FEF7F2FF08B172B6FEE74FF438
:1033A0008050009069460548FFF7AAF8002801D030
:1033B00072B6FEE71FBD000000400140040200207D
:1033C000FEE7017780ED060A00F05ABCFEE7000038
:1033D00080EC020A70EE600A9FED250AC0ED020A39
:1033E00090ED041A00EE801A80ED041AD0ED031A55
:1033F00030EEE12AC2EE001AC0ED051A90ED080A7F
:1034000090ED092A20EE200A02EE010A90ED0A1A38
:1034100001EE210A10EE101A80ED060AB1F17E5F6E
:1034200003DDB7EE000A80ED060AB5EEC00AF1EE44
:1034300010FA03D29FED0F0A80ED060AB0EE401A93
:1034400090ED070A0C4A31EE401A11EE101A914223
:1034500002DA90ED060A05E0B1EE041A30EE010A38
:1034600080ED060A80ED070AC0ED030A70470000F0
:10347000CDCCCC3D000000000000A040203080EC0E
:10348000030A70479FED070A80ED010A80ED050AE7
:1034900080ED020A80ED040A80ED030A80ED060A41
:1034A000704700000000000070477047FEF7D6BB71
:1034B00030B593B030216846FDF723F814210CA8ED
:1034C000FDF71FF81C480024016841F0805101609D
:1034D000006800F0805011901848016841F44041A4
:1034E00001600068022500F4404011900120039023
:1034F00010200490009506950820CDE9074064202F
:10350000CDE9090504200B906846FEF72DFD08B1B2
:1035100072B6FEE70F20CDE90C054FF48050CDE9DF
:103520000E4003210CA81094FEF732FC002801D0B5
:1035300072B6FEE713B030BD403802400070004064
:103540000248016841F470010160704788ED00E0B5
:1035500010B50448FFF76CF9BDE810400248FFF7CA
:1035600067B900009C00002004020020F0B502684A
:103570001F4B204C204D214E4FF0804C984207D0DD
:10358000604505D0A04203D0A84201D0B04203D18B
:1035900022F070074A683A43984210D060450ED036
:1035A000A0420CD0A8420AD0B04208D0144CA0428D
:1035B00005D0144CA04202D0134CA04203D122F4F7
:1035C0004074CA6822434C6922F0800222438C680E
:1035D000C4620C688462984201D109690163016880
:1035E00041F004010160012141610260F0BD000071
:1035F000000001400004004000080040000C0040B2
:1036000000400140004401400048014010B501F075
:103610001F030121046A99408C430462016A9A40A5
:103620001143016210BD10B5846842EA032224F4FC
:103630007F440A432243826010BD826822F07002F8
:103640000A4342F0070181607047000030B5036A09
:10365000026A22F0010202624268846924F0730562
:103660000C682C4323F002058B682B430A4DA842BB
:103670000BD123F00805CB6822F440722B434D692F
:1036800023F0040315438A692A4342608461496830
:103690004163036230BD00000000014030B5026AA2
:1036A000036A23F010030362436884690D6824F4FD
:1036B000E64444EA05248D6822F0200242EA05121D
:1036C0000B4DA8420ED1CD6822F0800242EA0512CD
:1036D0004D6923F4406343EA85038D6922F040027B
:1036E00043EA85034360846149688163026230BDB7
:1036F0000000014030B5036A026A22F4807202625F
:103700004268C46923F4007324F073050C682C43E9
:103710008D6843EA05230C4DA8420ED1CD6823F4F1
:10372000006343EA05234D6922F4405242EA051240
:103730008D6923F4806342EA05124260C4614968DE
:10374000C163036230BD00000000014030B5046A6F
:10375000026A22F4805202624268C3690D6823F44F
:10376000E64343EA05238D6824F4005444EA053413
:10377000064DA84204D14D6922F4804242EA8512E6
:103780004260C36149680164046230BD00000140C9
:1037900010B5036A046A24F001040462846924F009
:1037A000F00444EA021423F00A020A43846102622C
:1037B00010BD10B5036A046A24F010040462846921
:1037C00023F0A00324F4704444EA023243EA0111D6
:1037D0008261016210BD10B5806B0021C185FFF7C9
:1037E0000FFA10BD01680C3151E8002F22F49072DD
:1037F00041E80023002BF5D10168143151E8002F76
:1038000022F0010241E80023002BF5D1016B0129D0
:1038100009D101680C3151E8002F22F0100241E873
:103820000023002BF5D1202180F8421000210163F4
:10383000704708B590F84210222901D0022008BD37
:1038400082684FF480539A4201D1016921B1816AA3
:103850009A421BD04AB10AE00268816A5268C2F3F8
:1038600008020A80816A891C08E0026972B1026854
:10387000526802F07F020A70816A491C8162C18D20
:10388000491E0904090CC18503D01BE00268526877
:10389000F1E70168CA6822F02002CA600168CA68BC
:1038A00022F48072CA6001684A6922F001024A610A
:1038B000202180F8421000214163026B012A03D0CD
:1038C000FFF75CFB002008BD016301680C3151E883
:1038D000002F22F0100241E80023002BF5D10168EF
:1038E0000A68D20602D50A6849680091818DFFF7FF
:1038F00086F9E7E770B5044600680169E26821F4DB
:103900004051114301612169A068E269084361697E
:10391000114308432168CA6849F20C639A43024381
:10392000CA6020684169A26921F440711143416174
:1039300031492068884202D03049884202D1FEF7DE
:10394000D1FA01E0FEF7BEFAE269002319216425ED
:103950003226B2F5004F626828D0A0FB0101930F18
:103960009200FCF795FC0146B0FBF5F06FF01802F1
:10397000504301EB800006EB0010B0FBF5F000F0C7
:10398000F002B1FBF5F002EB0012B1FBF5F06FF0C5
:103990001803584301EB800006EB0010B0FBF5F074
:1039A00000F00F0021681044886070BDA0FB010189
:1039B00092185B41FCF76CFC0146B0FBF5F002018C
:1039C000B1FBF5F06FF01803584301EB800006EBF4
:1039D000C000B0FBF5F000F0F80002EB4002B1FBD4
:1039E000F5F0584301EB800006EBC000B0FBF5F0AA
:1039F00000F00700D6E7000000100140001401406D
:103A000081628285C28500214164222180F84210B2
:103A1000016921B10168CA6842F48072CA60016814
:103A20004A6942F001024A610068C16841F0200120
:103A3000C160002070472DE9F843984617460D46AF
:103A40000446089E24E0701C22D0FEF701F9A0EB8A
:103A50000800B0421AD8CEB12068C168490717D50E
:103A6000802D15D0402D13D00168C94309070FD40C
:103A700001680025406800902046FFF7B3FE08204B
:103A8000606484F840500120BDE8F8830320FBE720
:103A90002068006835EA000004D00020B842D2D087
:103AA0000020F1E70120F9E70148FFF7ABB800007B
:103AB0004C020020FEE703B401984100009850EA50
:103AC000C12018BF04204A0D18BF40F0010040F289
:103AD000FF72B2EB515F08BF40F00200012808BF3F
:103AE000052002B070470907090E002804DB00F129
:103AF000E02080F80014704700F00F0000F1E02093
:103B000080F8141D704700B52DED048BB0EE409A7F
:103B1000F0EE609A83B051EC190B00F0ABFE41EC73
:103B2000180B18EE100A18EE901A8DED008B002875
:103B300018BF0120084320F00040C0F17F6000F171
:103B4000E040C00F14D019EE101A19EE900A8DED56
:103B5000009B002918BF0121084320F00040C0F15C
:103B60007F6000F1E040C00F04BF0120FCF7F8FCCB
:103B7000B0EE480A03B0F0EE680ABDEC048B00BD5D
:103B800030380A2801D20120704700207047000019
:103B900010B52DED028BB0EE418AF0EE608A48B18F
:103BA000012856D1B5EEC00AF1EE10FA14DDF0EEA0
:103BB000400A13E09FED288A00212848B0EE480A09
:103BC000FFF7FFFBB0EE480A00212548FFF7F9FB9D
:103BD000B0EE480A002135E0F1EE400AB5EEC00A29
:103BE000F1EE10FA01DD012100E00221B0EE600AE1
:103BF0001A48FFF7E6FBF5EEC08AF1EE10FA02DD97
:103C0000B0EE680A01E0B1EE680AF5EEC08AF1EEA6
:103C100010FA01DD012100E002211148FFF7D1FB7C
:103C2000B5EEC08AF1EE10FA02DDB0EE480A01E00E
:103C3000B1EE480AB5EEC08AF1EE10FA01DD0121BD
:103C400000E00221BDEC028B0648BDE81040FFF702
:103C5000B8BBBDEC028B10BD000000009402002038
:103C6000B4020020D40200209FED040A0020B0EE30
:103C7000401AF0EE400AFFF78BBF00000000000082
:103C800010B50446007FB0B1012824D002282BD102
:103C9000A1890122A068FDF7D5FFA18A0022206931
:103CA000FDF7D0FFA08894ED060A81B22068BDE838
:103CB000104000F07BB9A1890022A068FDF7C2FF87
:103CC000A18A00222069FDF7BDFFA0889FED070AA9
:103CD00081B22068EBE7A1890022A068FDF7B2FF5E
:103CE000A18A01222069DBE710BD0000000000006E
:103CF00090ED002AF0EE401A31EEC20AB0EEC00A92
:103D000080EE201AB7EE000A11EE101AB1F17E5FB4
:103D100001DDB0EE401A30EE410A20EE020A01EE5B
:103D2000210A80ED000A704770B50546006800F072
:103D300019F80A4CA070686800F014F82070A868A0
:103D400000F010F8607094F90010014394F902003B
:103D50000143034800D00121017070BD9000002094
:103D6000040000202DE9F041002607463546344680
:103D70006FF02F080AE0385D2D2812D005EB850280
:103D800008EB4201084445B2641CE4B23846FCF733
:103D900099FBA042EFD80EB1684245B22846BDE873
:103DA000F08124B1381910F8010C2D2801D001261A
:103DB000EAE70249022008700020F0E70400002032
:103DC0002DED028B84B0FDF751FFFFF771FBFFF77C
:103DD0003FF9FFF71DFAFFF751FAFFF797FAFFF7E0
:103DE000ADF9FFF7E1F958485649002401604FF456
:103DF000E131C0E901140C26C460C0E904468461C5
:103E0000C461FFF73FF808B172B6FEE7FFF7B0FAFA
:103E10009FED4E8AB0EE481ADFED4D8A4A48B7EE64
:103E2000000AF0EE680AA830FFF728FB4648B0EE1B
:103E3000481AF0EE680AB7EE000AD430FFF71EFB0E
:103E4000B0EE481AF0EE680AB7EE000A4148FFF7F4
:103E500015FB3D4D8020D83D8DE861003E49402254
:103E60000B4605F5907000F089F80420C101CDE9FA
:103E700000153A49860102900B46324605F5A070BE
:103E800000F07CF83649CDE90065A1460B4680225A
:103E900005F5B070029400F071F8FFF7E5FE3C21E3
:103EA000A5F1D800FEF77CFC3C21A5F19000FEF7BF
:103EB00077FC3C21A5F14800FEF772FC012229495C
:103EC0002148FFF74DF805F14800FEF7B1FA05F17A
:103ED0009000FEF7DFFA234CB4F1050400F0F2F88D
:103EE000207838B3FDF7F2FAA06B00F079FE0746B0
:103EF0008846606B00F074FE05460E46206B00F0AD
:103F00006FFE41EC100B8DE8E001124853EC102BD2
:103F100015A12C30FCF734FA0E482C30FCF7D2FAFD
:103F20000C4982B24FF47A732C310748FFF73EF800
:103F300084F8009004F13C0090EC030A2079FFF72C
:103F400027FECBE7004400404C0200209A99993D9F
:103F50009A99993E4C03002000080240000C024050
:103F60000004024005000020252E336620252E3354
:103F70006620252E33660D0A0000000070B5044649
:103F8000DDE90505049EA1602060A2812361A6826F
:103F900029466560FEF7CCFD2046BDE870409FEDE8
:103FA000020A0021FFF70DBA000000000268D06A83
:103FB00000EE900AF8EE600A20EE800ADFED0B0AB0
:103FC00080EE201ABCEEC10A10EE100A39B10429A5
:103FD00007D0082907D00C2900D11064704750631E
:103FE000704790637047D063704700000000C8427C
:103FF00010B5FFF799FE0B4991F9000064280EDC1B
:1040000091F9010064280ADC91F90200642806DCB9
:1040100005480078022802D004A0486010BD05A021
:1040200010BD00009000002004000020446F6E6569
:104030000A000000436F6D6D616E64204572726FFF
:10404000720A000070B50D461B492DED048BB0EED1
:10405000418AF0EE408A09684A6A9FED189A002466
:10406000824205D3101A00EE100AB8EE400A09E0A9
:104070000121404261EB04018018614100F0DBFD49
:1040800000EE100AC0EE090AF4EEC80AF1EE10FACA
:104090000DD280EE880A0A4928EE800A10EE100A36
:1040A000884201DDB3EE0E0ABDEC048B70BD2C70AE
:1040B000B0EE680AF8E70000BC01002000401C4692
:1040C0000000F04170B52D4C90B02078002853D0FE
:1040D00000252BA12B48FCF7EFF96E4608E000BF46
:1040E00046F825006D1CEDB225A10020FCF7E4F98F
:1040F0000028F5D16846FFF77BFF60602248012168
:10410000027822487AB1224A92ED000AB5EEC00A3E
:10411000F1EE10FA07D11F4A137823B903685B6ADE
:104120001D4D2B6011701D4A12787AB11C4A92ED18
:10413000000AB5EEC00AF1EE10FA07D1194A137859
:1041400023B903685B6A184D2B601170174A127807
:104150007AB1174A92ED000AB5EEC00AF1EE10FAF4
:1041600007D1144A137823B90068406A124B1860CB
:10417000117000202070607010B070BD88000020A9
:10418000200000009603002092000020BC010020C7
:1041900024000020010000204800002090000020A2
:1041A00028000020020000204C0000209100002088
:1041B0002C0000200300002050000020084A094B7A
:1041C0000A2806D00D2803D051785854491C517044
:1041D000704701201070517800205854704700003B
:1041E000880000209603002010B500290AD0087826
:1041F000002807D005487844FCF758FD002801D076
:10420000002010BD0248784410BD0000120C0000D0
:104210000A0C000021F00042A2F16052B2F5801FAA
:1042200001F0004328BFD2F17F6C0BD95FEA001C7C
:1042300043EAC20242EB507018BF704728BF20F01B
:1042400001007047B2F5801FBCBF184670474FEAA7
:10425000410C1CF5001F02D2084600F067BD70B586
:1042600000F0B4FA00000089FFF7F6BF4FF00040FD
:10427000A0F580007047000010B591EA030F48BF19
:1042800083F0004300F1CA83841A71EB030C05D25A
:10429000121943EB0C03001B61EB0C01DFF824E166
:1042A0004FEA1154A4EB135C1EEA430F18BF9EEAB9
:1042B000445F73D023EA0E03DCF1200E21EA04519F
:1042C00043F4801332D322FA0CFE10EB0E0023FAD3
:1042D0000CFE41EB0E01CCF1200E03FA0EFE10EBAA
:1042E0000E0051F10001B1F5801FCCF1200E32D249
:1042F00001EB045112FA0EF2BDE8104058BF7047AE
:10430000401C38BF5FEA420218BF7047002814BF44
:1043100020F0010041F100014FEA410313F5001FB5
:1043200038BF7047A1F1C04100F09EBA012A43EBAB
:104330000302ACF1200CDCF11F0E32BF4FF0000E77
:1043400023FA0CF310EB030041EB0451B4EB115FC3
:10435000D0D0A1EB045101F5801149085FEA30008B
:1043600001EB04510ED350F1000038BF12FA0EFEDB
:1043700008D1BDE81040C9E7401C38BF5FEA4202DF
:10438000CAD1C3E7BDE810404FEA410313F5001F4F
:1043900038BF7047A1F1C04100F066BA9EEA445FA1
:1043A00008D011EA5E0FBDE8104004BF01F00041E3
:1043B00000207047BDE8104070B500F007FA00BF5C
:1043C00064FBBE3E0000E0FF2DE9C04130B4DFF8E1
:1043D000A0C23CEA111418BF3CEA131400F0EC80B0
:1043E00081EA03051CEA111444EAD57418BF1CEADB
:1043F000131500F0C780A4EB05044FF0004545EA13
:10440000C12145EAC32341EA505143EA525304F122
:104410007F74994204F500344FEAC0204FEAC2226B
:1044200008BF904200F09C804FEA13650FF24016DF
:10443000765D4FEA134506FB05F7C7F1807706FB6B
:1044400007F74FEAD737A7FB03687642C8F58038ED
:10445000A7FB06CE38BFA8F1010807FB08E64FF01E
:10446000000EA6FB028CE6FB03CEDCF1000CCEF1C5
:10447000004E38BFAEF1010EA6FB0C584FF00007FE
:104480004FF00005E6FB0E87A1FB08C6A0FB07CE98
:1044900016EB0E0645F10005E1FB076515F1E04E50
:1044A0007EBFA4F580345FEA46066D4116F18007B1
:1044B00045F100054FEA17274FEA066647EA056708
:1044C000A6F1DE46B6F1805F4FEA15251FD93846C2
:1044D00024F0010C05EBC471BCF1FE6F01EB0C1173
:1044E00002D8F0BCBDE8008124425CBF01F5801E0B
:1044F0009EEAC47F02D4F0BCBDE80081244238D4D7
:10450000F0BCA1F1C041BDE8004100F0ADB94FEAF7
:10451000D22242EA43524FEAD323A7FB02864FEA54
:10452000D02040EA415007FB03661EEA0E0F4FEA17
:10453000D12105FB026658BFA6EB0056B6EB00562C
:104540004FEA520E4EEAC37E18EB0E0E56EB530E98
:10455000BDD518EB02085E417F1C55F10005B6E79A
:104560004FF480154FF000074FF000064FF00008A1
:10457000ADE7F0BC4FF0000001F1C04101F0004197
:10458000BDE8008111EA0C1F0CEA131500D00CE005
:1045900013EA0C1F00F025804FF00000F0BC81EA08
:1045A000030101F00041BDE80081F0BCBDE800411D
:1045B00081EA030100F058B9F0BCBDE8004170B5D4
:1045C00000F004F9097EFC3E00F007B881EA03011F
:1045D0004FF0000001F00041704781EA030100F054
:1045E00043B9F0BCBDE800414FF0000021497047DD
:1045F000FFFDFBF9F7F5F4F2F0EEEDEBE9E8E6E4A8
:10460000E3E1E0DEDDDBDAD8D7D5D4D3D1D0CFCD2E
:10461000CCCBCAC8C7C6C5C4C2C1C0BFBEBDBCBB67
:10462000BAB9B8B7B6B5B4B3B2B1B0AFAEADACAB62
:10463000AAA9A8A8A7A6A5A4A3A3A2A1A09F9F9E3C
:104640009D9C9C9B9A9999989797969595949393EE
:10465000929191908F8F8E8E8D8C8C8B8B8A898985
:104660008888878786858584848383828281818008
:104670000000FF070000F87FDFF848C170B51CEAB2
:10468000111E1EBF1CEA13159EEA0C0F95EA0C0FB3
:1046900000F06F8081EA030423EA4C134EEAD47ED3
:1046A00021EA4C1141F4801143F48013AE44A1FB84
:1046B000024CA0FB0365AEF17F7E361955EB0C056D
:1046C000A1FB034C4CF10003A0FB021C16EB0C06F3
:1046D000654153F10003094218BF46F0010613F487
:1046E000007F0BD14FEA03314FEA0530340341EA32
:1046F000155140EA16506FF003020AE04FEAC32159
:104700004FEAC520F40241EA555140EA56506FF095
:10471000020202EB2E4201EB025585EACE710AD06D
:104720005FEA440C18BF24F0004450F1000041F14E
:10473000000120EAD47040F2FE7C624500D270BDD8
:10474000A84214BF4FF080444FF04044002E08BFF1
:104750000024BEF1806FA8BFA1F1C041BDE8704048
:1047600080F282804FF0000001F1C04101F0004171
:1047700070479EEA0C0F0CEA131518BF95EA0C0F50
:1047800006D04FF0000081EA030E0EF0004170BD2C
:1047900000F01CF88900013E00F007B800F009B8ED
:1047A0004FEA430C5FEA5C5C08D081EA030100F049
:1047B0005BB84FEA410C5FEA5C5CF6D14FF0000059
:1047C000014970470000FF070000F87F0EF1020E5C
:1047D0002EF0030E5EF8046B364205D4012A43EB3B
:1047E000030515F5001F12D8012841EB010C1CF53B
:1047F000001F0CD80ED14FEAD17C15F5001F0CEB31
:104800004C0C0CF1020C08BF4CEBD37C04E04FF0D5
:10481000080C01E04FEAD37C0CEB4C0526FA05F6B8
:1048200006F00706B6F1040C06D20EEB860CBDE8C6
:1048300070404CF0010C6047DFE80CF0090B0202FD
:104840004FF000414FF00000A1F5002170BD194666
:104850001046012851EB010418BFD4F5001484BFA1
:10486000002001F0004170BD0808A0F500114FEADA
:10487000310170472DE9F04101F5801CBCF5001FA6
:10488000C0F2A9804FEA115C21EA0C510CF1FD0C39
:1048900041F480115FEA5C0C0CF5C07C01D3400050
:1048A000494130A4890241EA905187028E0E0A0CD8
:1048B000A45D04FB04F602FB06F6C6F14046A4FB29
:1048C0000662F60D46EA422606FB06F4A4FB012327
:1048D0005242C3F1404338BF5B1EA6FB0242002494
:1048E000E6FB0324D20B42EA4446A6FB0623A1FBC7
:1048F00002E2A3FB07E4E3FB61426442C2F1404EE3
:1049000038BFAEF1010EA6FB04234FF00002E6FB18
:104910000E32A2FB03463400E2FB6264A1FB06E612
:10492000A4FB07E8E4FB61687642C8F1405838BF51
:10493000A8F10108A2FB06E4A3FB08E5E2FB68542A
:10494000A1FB05E6A7FB04E8E1FB648618F120055E
:1049500056F10006A809A8F11B08B10908F03F08A4
:10496000B8F10A0F40EA86601CD901EB0C51BDE892
:10497000F08100BFFCF5EEE8E2DDD8D3CFCBC7C3B2
:10498000C0BDB9B6B4B1AEACA9A7A5A3A19F9D9B6C
:104990009A9896959392908F8D8C8B89888786852F
:1049A00084838281A0FB006800FB01F208EB4208CF
:1049B000B8EB872807D5341858EB0104D5D5401C2F
:1049C00051F10001D1E7341A78EB0104CDD4401E37
:1049D00071F10001C9E75FEA4C0C5FEA9C5C0DD104
:1049E00005D34FF0000001F00041BDE8F081BDE8C3
:1049F000F04170B5FFF7EAFE6DDBFFBEBDE8F041A8
:104A00004FF00000004970470000F87F10B591EAB0
:104A1000030F48BF83F000433FF536AC841A71EBB7
:104A2000030C07D212198CF0004C43EB0C03001B53
:104A300061EB0C01DFF8A4E14FEA1154A4EB135C25
:104A40001EEA430F18BF9EEA445F00F0B08023EADD
:104A50006E03524221EA0451C3EB6E0338BF5B1E62
:104A6000DCF1200E25D322FA0CFE10EB0E0043FAE7
:104A70000CFE41EB0E01CCF1200E03FA0EFE10EB02
:104A80000E0051F10001CCF1200E29D412FA0EF2E1
:104A900001EB0451BDE8104058BF7047401C1CBFDB
:104AA000B2F1004F704700280CBF491C20F00100F4
:104AB000704712EB020E43EB030218BF4FF0010EDA
:104AC0004EEA4202ACF1200CDCF11E0E54D943FA3E
:104AD0000CFE10EB0E0051F1FF31CCF11E0ED5D5BE
:104AE0000EF1010E12FA0EFE404141EB010101EB05
:104AF000445C5FEA5C5C10D910EBDE7001EB0451A2
:104B000038BFBEF1004FBDE8104018BF7047002805
:104B10000CBF491C20F00100704730D24FEAD42C62
:104B200011F5001124F400641BD0B1FA81F20B3AA4
:104B3000A41AA41ED2F12003914030FA03F31943C2
:104B4000904001EBCC71002C01EB0451BDE810400A
:104B5000A8BF704701F1C0414FF0000001F00041D3
:104B60007047B0FA80F310FA03F100D110BDE41AD7
:104B7000173C4805C90AE4E701EB045110BD491090
:104B800001EB0451BDE810404FEA300002E04FF065
:104B9000000170474A0008BF0042F8D0B2F5001F7C
:104BA00028BF704701F000414FF0000070479EEAB7
:104BB000445F07D011EA5E0FBDE8104004BF00213A
:104BC00000207047BDE8104070B5FFF7FFFD00BF43
:104BD00040DFF63E83F00041104670470000E0FFE2
:104BE00043004FEAD30C4FEA3C0C43401FBF400741
:104BF0000CF1605113F0FE4F70471CF0006F03D1B1
:104C000000200CF0004170470CF0004343EA507064
:104C100010B540EACC0000F03EF800BF0000009262
:104C20004FEA0001FFF720BE4FF000414FF00000B7
:104C3000A1F5002170474FF07E5209E011F00042CB
:104C400004D54042C1F1000138BF491E42F07E52F6
:104C50000B0002F1706212BF20235FEA000170476F
:104C6000B1FA81FCA3EB0C0301FA0CF120FA03FC6E
:104C700002EBC352C3F1200341EA0C0110FA03FC1A
:104C80005CEA416C42EB112018BF5FF0806C28BFDA
:104C900020F0010070470EF1020E2EF0030E5EF8B8
:104CA000044B244204D44FEA4102B2F17F4F11D8A1
:104CB0004FEA4003B3F17F4F0CD80ED14FEAD07CBE
:104CC000B2F17F4F0CEB4C0C0CF1020C08BF4CEB1B
:104CD000D17C04E04FF0080C01E04FEAD17C0CEBF2
:104CE0004C0324FA03F404F00704B4F1040C06D2D4
:104CF0000EEB840CBDE810404CF0010C6047DFE87F
:104D00000CF0070802024FF00040A0F5800010BD33
:104D10000846420018BFD2F1807288BF00F0004000
:104D200010BD4FF04070E1EE100A7047FF2141EADC
:104D3000D050C0057047FBF7F2BC00000000000037
:104D40000000010203040607080900000000010238
:104D50000304000002400000000000A0000000006A
:104D600005400000000000C8000000000C400000EA
:104D70000000409C00000000194000000020BCBE64
:104D80000000000034400000BFC91B8E000000047A
:104D9000B5400000504BCFD06607E2CF01000000C5
:104DA0006C4100003E8251AADFEEA73401000000F2
:104DB000D9420000DCB5A0E23A301F97FFFFFFFFA9
:104DC000B4450000FD25A0C8E9A3C14FFFFFFFFFC8
:104DD000FF3F00000000008000000000FF3F0000D7
:104DE0000000008000000000244E000800000020A9
:104DF0009C000000D4010008C04E00089C00002068
:104E000084090000F00100081C00000043000000BD
:104E1000F8FFFFFF0C0000000E0000000F00000074
:104E20002E00000000000000000000000000000054
:104E30000000000000000000000000000000000072
:104E40000000000000000000000000000000000062
:104E50000000000000000000000000000000000052
:104E60000000000000000000000000000000000042
:104E700000000000000000000000FA430000C842EB
:104E80000000000000000000000000000000000022
:104E90000000000000000000000000000100000011
:104EA00010000000000000000024F40000000000DA
:104EB00000000000000000000000000000000000F2
:040000050800019955
:00000001FF
